:020000040800F2
:1000000010040020D5000008510500084D05000827
:1000100000000000000000000000000000000000E0
:10002000000000000000000000000000550500086E
:1000300000000000000000005305000857050008FC
:10004000E7000008E7000008E7000008E7000008F4
:10005000E7000008E7000008E7000008E7000008E4
:10006000E7000008E7000008E7000008E7000008D4
:10007000E7000008E7000008E7000008E7000008C4
:10008000E7000008E7000008E7000008E7000008B4
:10009000E7000008E7000008E7000008E7000008A4
:1000A000E7000008E7000008E7000008E700000894
:1000B000E7000008E7000008E7000008E700000884
:1000C0000348854600F03CF8004800473506000824
:1000D000100400200448804704480047FEE7FEE77C
:1000E000FEE7FEE7FEE7FEE761050008C100000845
:1000F00030B50B46014600202022012409E00D46C0
:10010000D5409D4205D31D469540491B2546954047
:1001100040191546521E002DF1DC30BDD2B201E06F
:100120000270401C491EFBD270470022F6E710B552
:1001300013460A4604461946FFF7F0FF204610BD55
:10014000064C0125064E05E0E36807CC2B430C3C2A
:1001500098471034B442F7D3FFF7B6FF8C06000877
:10016000AC06000800B587B0142102A8FFF7DDFF38
:1001700000BF2548406B02210843234948630846D5
:10018000406B02210840019000BF00BF1F20C00249
:10019000029001200390002004900220059002A903
:1001A0001A4800F04BF801220721C902174800F055
:1001B0002FF9002203218903144800F029F900BF18
:1001C0001148406B012108430F4948630846406BC2
:1001D000C007C00F019000BF00BF8815029001202A
:1001E0000390002004900220059002A9052000073A
:1001F00000F024F80022FF2101310520000700F063
:1002000007F907B000BD00000010024000040050D4
:1002100070B5044600F002F906462546681C002821
:1002200002D0054800682D1800BF00F0F7F8801BC9
:10023000A842FAD370BD00000C00002070B5034640
:100240000022D0E0012696400C683440002C71D08A
:100250004D68022D02D04D68122D15D1D508AE0083
:100260001D462035A8595507EE0E0F25B540064608
:10027000AE4330465607F60E0D69B5402843D50803
:10028000AD001E4620367051186856000325B54053
:100290000646AE4330460D79AD07AD0F5600B5406A
:1002A000284318604D68012D08D04D68022D05D0F7
:1002B0004D68112D02D04D68122D18D19868560046
:1002C0000325B5400646AE4330465600CD68B540DE
:1002D000284398605868012595400646AE4330464D
:1002E00010264D6835402D09954028435860D86840
:1002F00056000325B5400646AE43304656008D688D
:10030000B5402843D860012636074D683540B542D0
:1003100068D1384D9608B600A8599507EE0E0F25FE
:10032000B5400646AE43304605252D07AB4202D107
:1003300000250BE056E0304DAB4201D1012505E030
:100340002E4DAB4201D1022500E003259607F60EA3
:10035000B5402843274D9608B600A851254D2035B5
:1003600028680546A5432846012636044D683540D1
:10037000B54202D10546254328461E4D203528604A
:1003800068680546A5432846012676044D68354031
:10039000B54202D1054625432846164D20356860F2
:1003A000144D603D28680546A543284601263605BC
:1003B0004D683540B54202D10546254328460D4DCE
:1003C000603D286068680546A543284601267605F5
:1003D0004D683540B54202D1054625432846054DB6
:1003E000603D6860521C0D68D540002D00D029E7A3
:1003F00070BD00006018024000040050000800506A
:1004000042690A40002A01D0816200E081617047A0
:10041000002A01D0816100E08162704701480068D4
:100420007047000004000020034800680349096881
:100430004018014908607047040000200C000020AB
:1004400010B50024032000F009F8002801D0012491
:1004500001E000F033F8204610BD0000F8B5044676
:1004600000251348006800281ED0114801687D202F
:10047000C000FFF73DFE074639460E480068FFF70B
:1004800037FE064600F046F800280BD1042C07D2B0
:1004900000222146401E00F033F80748046004E0C3
:1004A000012502E0012500E001252846F8BD0000F5
:1004B0000C000020000000200800002008B500BF4C
:1004C0000E480068012108430C490860084600688E
:1004D000C007C00F009000BF00BF00BF07484038F2
:1004E000C06B8905084305494039C8630846C06B9D
:1004F00009040840009000BF00BF08BD4010024042
:1005000070B504460D4616462946204600F046F8CA
:1005100070BD000070B504462546681E0949884232
:1005200001D901200CE0681E074948610321081F1A
:1005300000F034F800200449886107200861002099
:1005400070BD0000FFFFFF0000E000E000BFFEE71D
:1005500070477047704710B5FFF766FF10BD000089
:100560000A484068400E40060121490340180849E6
:10057000098989B2084307490989090408430349DD
:100580004860C803044988607047000000100240BA
:100590000032FF1F4033FF1F00ED00E010B50028C0
:1005A00019DB1A4A03231B02D21883089B00D25876
:1005B0008307DC0EFF23A3409A438B071B0E84079F
:1005C000E40EA3401A43114B032424021B19840890
:1005D000A4001A5118E00E4A03071B0F083B9B08A2
:1005E0009B00D2588307DC0EFF23A3409A438B075E
:1005F0001B0E8407E40EA3401A43054B0407240F87
:10060000083CA408A4001A5110BD000000E100E05D
:100610001CED00E002E008C8121F08C1002AFAD150
:1006200070477047002001E001C1121F002AFBD172
:1006300070470000FFF704FFFFF794FD22E0FF2062
:10064000F530FFF7E5FD0121C9020F48FFF7D8FE9D
:10065000012109030C48FFF7D3FE012149030A4891
:10066000FFF7CEFE012189030748FFF7C9FE0121EC
:10067000C9030548FFF7C4FEFF210131052000072B
:10068000FFF7BEFEDBE7000000040050AC060008E8
:10069000000000201000000014060008BC0600083E
:1006A00010000020000400002406000800127A0058
:0C06B00000000000040000000100000039
:04000005080000C12E
:00000001FF
