:020000040800F2
:1000000010040020D5000008E5040008E104000801
:1000100000000000000000000000000000000000E0
:10002000000000000000000000000000E9040008DB
:100030000000000000000000E7040008EB040008D6
:10004000E7000008E7000008E7000008E7000008F4
:10005000E7000008E7000008E7000008E7000008E4
:10006000E7000008E7000008E7000008E7000008D4
:10007000E7000008E7000008E7000008E7000008C4
:10008000E7000008E7000008E7000008E7000008B4
:10009000E7000008E7000008E7000008E7000008A4
:1000A000E7000008E7000008E7000008E700000894
:1000B000E7000008E7000008E7000008E700000884
:1000C0000348854600F03CF800480047C905000891
:1000D000100400200448804704480047FEE7FEE77C
:1000E000FEE7FEE7FEE7FEE7F5040008C1000008B2
:1000F00030B50B46014600202022012409E00D46C0
:10010000D5409D4205D31D469540491B2546954047
:1001100040191546521E002DF1DC30BDD2B201E06F
:100120000270401C491EFBD270470022F6E710B552
:1001300013460A4604461946FFF7F0FF204610BD55
:10014000064C0125064E05E0E36807CC2B430C3C2A
:1001500098471034B442F7D3FFF7B6FFE80500081C
:100160000806000800B587B0142102A8FFF7DDFFDC
:1001700000BF0D48406B022108430B494863084605
:10018000406B02210840019000BF00BF0420029094
:100190000120039004900220059002A9034800F07A
:1001A0001DF807B000BD0000001002400004005020
:1001B00070B5044600F0FCF806462546681C002889
:1001C00002D0054800682D1800BF00F0F1F8801B30
:1001D000A842FAD370BD00000C00002070B50346A1
:1001E0000022D0E0012696400C683440002C71D0EB
:1001F0004D68022D02D04D68122D15D1D508AE00E4
:100200001D462035A8595507EE0E0F25B540064668
:10021000AE4330465607F60E0D69B5402843D50863
:10022000AD001E4620367051186856000325B540B3
:100230000646AE4330460D79AD07AD0F5600B540CA
:10024000284318604D68012D08D04D68022D05D057
:100250004D68112D02D04D68122D18D198685600A6
:100260000325B5400646AE4330465600CD68B5403E
:10027000284398605868012595400646AE433046AD
:1002800010264D6835402D09954028435860D868A0
:1002900056000325B5400646AE43304656008D68ED
:1002A000B5402843D860012636074D683540B54231
:1002B00068D1384D9608B600A8599507EE0E0F255F
:1002C000B5400646AE43304605252D07AB4202D168
:1002D00000250BE056E0304DAB4201D1012505E091
:1002E0002E4DAB4201D1022500E003259607F60E04
:1002F000B5402843274D9608B600A851254D203516
:1003000028680546A5432846012636044D68354031
:10031000B54202D10546254328461E4D20352860AA
:1003200068680546A5432846012676044D68354091
:10033000B54202D1054625432846164D2035686052
:10034000144D603D28680546A5432846012636051C
:100350004D683540B54202D10546254328460D4D2E
:10036000603D286068680546A54328460126760555
:100370004D683540B54202D1054625432846054D16
:10038000603D6860521C0D68D540002D00D029E703
:1003900070BD0000601802400004005000080050CA
:1003A00042690A40002A01D0816200E08161704701
:1003B00001480068704700000400002003480068FE
:1003C000034909684018014908607047040000208B
:1003D0000C00002010B50024032000F009F80028CC
:1003E00001D0012401E000F033F8204610BD0000E8
:1003F000F8B5044600251348006800281ED01148AF
:1004000001687D20C000FFF773FE074639460E489D
:100410000068FFF76DFE064600F046F800280BD195
:10042000042C07D200222146401E00F033F8074872
:10043000046004E0012502E0012500E001252846D2
:10044000F8BD00000C000020000000200800002083
:1004500008B500BF0E480068012108430C49086038
:1004600008460068C007C00F009000BF00BF00BF73
:1004700007484038C06B8905084305494039C863BF
:100480000846C06B09040840009000BF00BF08BDCB
:100490004010024070B504460D46164629462046D7
:1004A00000F046F870BD000070B504462546681E91
:1004B0000949884201D901200CE0681E07494861BA
:1004C0000321081F00F034F8002004498861072048
:1004D0000861002070BD0000FFFFFF0000E000E0A9
:1004E00000BFFEE770477047704710B5FFF766FF23
:1004F00010BD00000A484068400E40060121490333
:1005000040180849098989B208430749098909043B
:10051000084303494860C8030449886070470000E5
:10052000001002400032FF1F4033FF1F00ED00E0CB
:1005300010B5002819DB1A4A03231B02D2188308BE
:100540009B00D2588307DC0EFF23A3409A438B07FE
:100550001B0E8407E40EA3401A43114B032424020C
:100560001B198408A4001A5118E00E4A03071B0F38
:10057000083B9B089B00D2588307DC0EFF23A34057
:100580009A438B071B0E8407E40EA3401A43054BC6
:100590000407240F083CA408A4001A5110BD000051
:1005A00000E100E01CED00E002E008C8121F08C1F5
:1005B000002AFAD170477047002001E001C1121FE4
:1005C000002AFBD170470000FFF704FFFFF7CAFDC8
:1005D00006E06420FFF7ECFD04210248FFF7E0FE8F
:1005E000F7E70000000400500806000800000020A3
:1005F00010000000A80500081806000810000020E0
:1006000000040000B805000800127A000000000095
:080610000400000001000000DD
:04000005080000C12E
:00000001FF
